:020000040800F2
:1000000000C00020211B0008711B0008711B0008A4
:10001000711B0008711B0008711B00080000000024
:10002000000000000000000000000000711B00083C
:10003000711B000800000000711B0008E90900089E
:10004000711B0008711B0008711B0008711B000860
:10005000711B0008711B0008711B0008711B000850
:10006000711B0008711B0008711B0008711B000840
:10007000711B0008711B0008711B0008711B000830
:10008000711B0008711B0008711B0008711B000820
:10009000711B0008711B0008711B0008711B000810
:1000A000711B0008711B0008711B0008711B000800
:1000B000711B00080000000000000000711B000818
:1000C000711B00080000000000000000711B000808
:1000D00000000000730F0008F10F0008000000008E
:1000E000711B0008711B00080000000000000000E8
:1000F0000000000000000000000000000000000000
:10010000000000000000000000000000711B00085B
:100110000000000000000000711B0008711B0008B7
:10012000711B0008711B0008711B0008711B00087F
:10013000711B00080000000000000000000000002B
:10014000711B0008711B0008711B0008711B00085F
:10015000711B0008711B0008711B0008711B00084F
:10016000711B0008711B0008711B000800000000D3
:10017000711B0008711B0008000000000000000057
:0C018000711B0008711B0008711B0008B7
:10018C0080B487B000AF7860396000237B613B6836
:10019C00013B3B6117E07B697A6813441B78FB7366
:1001AC003B697A681A447B6979680B4412781A7037
:1001BC003B697A681344FA7B1A707B6901337B6163
:1001CC003B69013B3B617A693B699A42E3DB00BFC7
:1001DC0000BF1C37BD4680BC704780B588B000AFEF
:1001EC00F860B9607A600023FB610023FB76FB6842
:1001FC00002B0ED1FB695A1CFA611A46BB681344DA
:10020C0030221A70FB69BA68134400221A70BB685A
:10021C003FE0FB68002B24DA7B680A2B21D10123F9
:10022C00FB76FB685B42FB601BE0FB687A6893FB28
:10023C00F2F2796801FB02F29B1A7B617B6903F095
:10024C000F03164A52F82310FB69BA681344CAB25A
:10025C001A70FB690133FB61FA687B6892FBF3F35C
:10026C00FB60FB68002BE0D1FB7E002B07D0FB6909
:10027C005A1CFA611A46BB6813442D221A70FB698A
:10028C00BA68134400221A70F969B868FFF778FF4E
:10029C00BB6818462037BD4680BD00BF741B0008E4
:1002AC0080B487B000AFF860B9607A601AE0FB6880
:1002BC0093F90030DAB2BB6893F90030DBB2D31A91
:1002CC00DBB2FB7597F91730002B02D097F917307A
:1002DC000CE07B68013B7B60FB680133FB60BB6817
:1002EC000133BB607B68002BE1DC002318461C3714
:1002FC00BD4680BC704780B485B000AFF860B96073
:10030C007A600CE0BB681A78FB681A70FB680133E2
:10031C00FB60BB680133BB607B68013B7B607B6827
:10032C00002BEFDC00BF00BF1437BD4680BC70470C
:10033C0080B485B000AF78600023FB7305E07B6868
:10034C0001337B60FB7B0133FB737B681B78002BD9
:10035C00F5D1FB7B18461437BD4680BC704780B581
:10036C0086B000AFF860B9607A607B68002B02DC65
:10037C00032000F0BDFC00237B610FE0BB681A7802
:10038C00FB681A70FB680133FB60BB680133BB6010
:10039C007B68013B7B607B6901337B617B68002B55
:1003AC0003DDBB681B78002BE8D17B691846183736
:1003BC00BD4680BD80B582B000AF00F005FDC64BD8
:1003CC005B69C54A23F008035361C82000F0EEFBBB
:1003DC006FF0060000F046FC4FF4E131012001F013
:1003EC0001F80346002B03D0042000F081FC03E04D
:1003FC00BA49012001F0D9F8002000F033FC4FF489
:10040C00E131022000F0EEFF0346002B03D0052063
:10041C0000F06EFC03E0B249022001F0C6F86FF068
:10042C000A0000F01FFCAF49012001F0BEF8AD49F5
:10043C00022001F0BAF8AC49012001F0B6F8AA4943
:10044C00022001F0B2F8642000F0B0FBA7490120B3
:10045C0001F0ABF8A549022001F0A7F8A249012050
:10046C0001F0A3F8A049022001F09FF8642000F0ED
:10047C009DFB9C49012001F098F89A49022001F05B
:10048C0094F89949012001F090F89749022001F065
:10049C008CF8642000F08AFB9549012001F085F866
:1004AC009349022001F081F88F49012001F07DF879
:1004BC008D49022001F079F8642000F077FB8D491A
:1004CC00012001F072F88B49022001F06EF8864988
:1004DC00012001F06AF88449022001F066F86420DA
:1004EC0000F064FB8449012001F05FF8824902208E
:1004FC0001F05BF87C49012001F057F87A490220A1
:10050C0001F053F8642000F051FB7C49012001F00C
:10051C004CF87A49022001F048F87349012001F0A7
:10052C0044F87149022001F040F8642000F03EFBD1
:10053C007349012001F039F87149022001F035F8B6
:10054C006949012001F031F86749022001F02DF8CA
:10055C00642000F02BFB6B49012001F026F869495F
:10056C00022001F022F86049012001F01EF85E49DA
:10057C00022001F01AF8642000F018FB6FF00A005A
:10058C0000F070FB072000F06DFB5F49012001F0CB
:10059C000CF85D49022001F008F85349012001F0E4
:1005AC0004F85149022001F000F8642000F0FEFA32
:1005BC0000F0FEF85549012000F0F7FF53490220E6
:1005CC0000F0F3FF4849012000F0EFFF46490220FC
:1005DC0000F0EBFF642000F0E9FA00F011FA03469A
:1005EC004B4A1360012000F063FF0346B3F1FF3F59
:1005FC0006D1022000F05CFF0346B3F1FF3F1BD095
:10060C0000237B6015E04FF4617000F0CFFA324BA1
:10061C005B69314A43F008035361642000F0C6FA69
:10062C002D4B5B692C4A23F0080353617B68013323
:10063C007B607B68022BE6DD00F0E2F93860354B1D
:10064C001B78092B00F28B8001A252F823F000BF1B
:10065C0085060008A3060008B1060008BF060008BE
:10066C00CD060008250700083307000841070008DD
:10067C004F0700085D070008254B1B683A689A4233
:10068C0073D0234A3B681360224B1B780133DAB2D8
:10069C00204B1A7069E01F4B1B780133DAB21D4BEB
:1006AC001A7063E01B4B1B780133DAB2194B1A70CA
:1006BC005CE0184B1B780133DAB2164B1A7055E01C
:1006CC00134B1B68184600F097F8124B1B7801333C
:1006DC00DAB2104B1A7049E000040048B41B000851
:1006EC00BC1B0008C41B0008C81B0008CC1B00085E
:1006FC00DC1B0008F81B0008141C0008281C000850
:10070C002C1C0008601C0008881C00089C1C00089D
:10071C000000002008000020174B1B780133DAB2D0
:10072C00154B1A7022E0144B1B780133DAB2124BC2
:10073C001A701BE0104B1B780133DAB20E4B1A7097
:10074C0014E00D4B1B780133DAB20B4B1A700DE031
:10075C00094B1B780133DAB2074B1A7006E000F034
:10076C0015FA054B00221A7000E000BF034B1B6802
:10077C000133024A136035E7080000200400002012
:10078C0080B400AF024B1B681846BD4680BC704756
:10079C000C00002080B400AF044B1B680133034AEB
:1007AC00136000BFBD4680BC704700BF0C0000202A
:1007BC0080B500AF0D49012000F0F7FE0B49022077
:1007CC0000F0F3FE0A49012000F0EFFE0849022078
:1007DC0000F0EBFE642000F0E9F900F011F903469B
:1007EC0003F57A73034A136000BF80BDB41C000884
:1007FC00D01C00081800002090B593B000AF7860B2
:10080C005B4B1B78092B00F2A18001A252F823F05C
:10081C0045080008770800088508000893080008B8
:10082C00A1080008AF080008BD080008CB080008A4
:10083C00D9080008E70800084E4B1B687A689A42F2
:10084C00C0F290804C4B5B694B4A43F008035361F8
:10085C00484B1B6803F57A73464A1360444B1B786C
:10086C000133DAB2424B1A707CE0414B1B780133F6
:10087C00DAB23F4B1A7076E03D4B1B780133DAB29B
:10088C003B4B1A706FE03A4B1B780133DAB2384BA2
:10089C001A7068E0364B1B780133DAB2344B1A709D
:1008AC0061E0334B1B780133DAB2314B1A705AE0EA
:1008BC002F4B1B780133DAB22D4B1A7053E02C4BB3
:1008CC001B780133DAB22A4B1A704CE0284B1B7898
:1008DC000133DAB2264B1A7045E0284B07F10804B5
:1008EC000FCB07C4238007F11603322200211846D0
:1008FC0001F068F8224B186807F108030D330A223F
:10090C001946FFF76AFC07F108031946012000F0AD
:10091C004CFE07F108031946022000F046FE194967
:10092C00012000F042FE1749022000F03EFE642038
:10093C0000F03CF9124B1B680133114A13600C4B4D
:10094C001B780133DAB20A4B1A700CE000F018FA7B
:10095C00074B00221A70084B5B69074A23F0080307
:10096C00536100E000BF00BF4C37BD4690BD00BFD7
:10097C00100000201800002000040048D41C0008BF
:10098C0014000020D01C000880B483B000AF0346D4
:10099C003960FB7197F90730002B0ADB3B68DAB240
:1009AC000C4997F907301201D2B20B4483F800239B
:1009BC000AE03B68DAB20849FB7903F00F03043B09
:1009CC001201D2B20B441A7600BF0C37BD4680BC64
:1009DC00704700BF00E100E000ED00E0684620F049
:1009EC0007018D4681B400AF044B1B680133034AE9
:1009FC00136000BFBD4681BC854670471C000020BB
:100A0C0080B400AF024B1B681846BD4680BC7047D3
:100A1C001C00002080B485B000AF78600E4BFB60EA
:100A2C00FA680E4B1344FA68B3FBF2F37A6802FBD4
:100A3C0003F30B4A136004E0094B1B68013B084AA3
:100A4C001360074B1B68002BF6D100BF00BF143797
:100A5C00BD4680BC704700BF00093D00FF8FD0032E
:100A6C002000002080B483B000AF786039607B68D0
:100A7C001A683B685B00032101FA03F3DB431A405D
:100A8C007B681A607B681A683B685B00012101FA7D
:100A9C0003F31A437B681A607B689A683B685B00B7
:100AAC00032101FA03F3DB431A407B689A607B68ED
:100ABC009A683B685B00012101FA03F31A437B68D7
:100ACC009A6000BF0C37BD4680BC704780B483B0C1
:100ADC0000AF786039607B685A6901213B6801FA84
:100AEC0003F31A437B685A6100BF0C37BD4680BCC8
:100AFC00704780B483B000AF786039607B685A6906
:100B0C0001213B6801FA03F3DB431A407B685A610D
:100B1C0000BF0C37BD4680BC704780B500AF0A4B98
:100B2C004FF6FF125A60084B00229A60064B0722C0
:100B3C001A600F214FF0FF30FFF726FF0A20FFF756
:100B4C0069FF00BF80BD00BF10E000E080B483B03F
:100B5C0000AF0D4BDB687B6040F2FA533B607A6868
:100B6C004FF6FF0313407B603B681A047B6813430A
:100B7C0043F440737B60044A7B68D36000BF0C373E
:100B8C00BD4680BC704700BF00ED00E080B400AFF4
:100B9C00054B1B69044A23F00403136130BF00BFEB
:100BAC00BD4680BC704700BF00ED00E080B586B04C
:100BBC0000AF786000F0E4F8FFF722FF7861FFF7F0
:100BCC00E5FFFFF71DFF38613A697B69D31AFB60BB
:100BDC00FA687B689A4200DAF1E700BF00BF183769
:100BEC00BD4680BD80B485B000AF78601F23FB602C
:100BFC000CE07A68FB6842FA03F303F00103002B64
:100C0C0001D0FB6807E0FB68013BFB60FB68002B35
:100C1C00EFDA4FF0FF3318461437BD4680BC7047EF
:100C2C0080B582B000AF786039600D4B5B690C4ABF
:100C3C0043F0080353617B683A6802FB03F31846E0
:100C4C00FFF7B4FF064B5B69054A23F008035361B9
:100C5C007868FFF7ABFF00BF0837BD4680BD00BF0B
:100C6C000004004880B586B000AF786064233B6117
:100C7C003B695B001846FFF799FF7B68002B04DD8E
:100C8C0003213869FFF7CCFF0AE001213869FFF72F
:100C9C00C7FF7B68002B03DA7B68C3F101037B6021
:100CAC007868FFF79FFFF860FB68013B7B6115E0FC
:100CBC0001227B6902FA03F3BB607A68BB681340BC
:100CCC00002B04D101213869FFF7AAFF03E00321AF
:100CDC003869FFF7A5FF7B69013B7B617B69002BC2
:100CEC00E6DA3869FFF762FF00BF1837BD4680BDF2
:100CFC0080B582B000AF7860154B5B69144A43F045
:100D0C00800353614FF080435B694FF0804243F0A6
:100D1C00800353610F4B5B690E4A23F00803536148
:100D2C004FF47A70FFF742FF0B4B4FF0FF32C3F8D2
:100D3C008020094B4FF0FF32C3F88420064B4FF054
:100D4C00FF32C3F888207868FFF78CFFFBE700BF01
:100D5C00002C01400004004800E100E080B500AF29
:100D6C00064B00229A61054BDB6C044A43F00303EB
:100D7C00D3640A20FFF74EFE00BF80BD0010024076
:100D8C0080B400AF034B4AF6AA221A6000BFBD46DE
:100D9C0080BC70470030004080B500AF094B4CF66A
:100DAC00CC421A60074B45F255521A60054B07228C
:100DBC005A6000BF034BDB68002BFBD1FFF7E0FF51
:100DCC0000BF80BD0030004080B500AFFFF7C6FF0C
:100DDC0003210848FFF746FE064B5B69054A43F0C2
:100DEC0008035361FFF7B2FEFFF797FEFFF7D4FF3E
:100DFC0000BF80BD0004004880B483B000AF034640
:100E0C00FB7197F90730002B0BDBFB7903F01F020A
:100E1C00064997F907305B09012000FA02F241F804
:100E2C00232000BF0C37BD4680BC704700E100E0BA
:100E3C0080B483B000AF03463960FB7197F907307B
:100E4C00002B0ADB3B68DAB20C4997F90730120128
:100E5C00D2B20B4483F800230AE03B68DAB20849AB
:100E6C00FB7903F00F03043B1201D2B20B441A7648
:100E7C0000BF0C37BD4680BC704700BF00E100E0EE
:100E8C0000ED00E080B582B000AF78604FF4817265
:100E9C000021786800F096FD00BF0837BD4680BD84
:100EAC0080B483B000AF78600B46FB707B681B7816
:100EBC00DBB21A467B681344FA789A707B681B780D
:100ECC00DBB20133DAB27B681A7000BF0C37BD4657
:100EDC0080BC704780B483B000AF78607B681B78AF
:100EEC00DAB27B685B78DBB29A420CBF0123002339
:100EFC00DBB218460C37BD4680BC704780B485B059
:100F0C0000AF78607B685B78DBB25A1CD1B27A6830
:100F1C0051701A467B6813449B78FB73FB7B184615
:100F2C001437BD4680BC704780B483B000AF786086
:100F3C007B681B78DAB27B685B78DBB2D31ADBB2E6
:100F4C0018460C37BD4680BC704780B582B000AFE8
:100F5C0078607868FFF7E8FF0346C3F1FF03184693
:100F6C000837BD4680BD684620F007018D4681B527
:100F7C0083B000AF184BDB697B607B6803F0200308
:100F8C00002B07D0144B9B8C9BB2DBB21946134839
:100F9C00FFF786FF7B6803F08003002B14D010480A
:100FAC00FFF798FF0346002B08D10D48FFF7A6FF6B
:100FBC0003461A46084B92B21A8505E0064B1B688D
:100FCC00054A23F08003136000BF0C37BD46BDE813
:100FDC0081408546704700BF003801402400002046
:100FEC0028010020684620F007018D4681B583B0AA
:100FFC0000AF184BDB697B607B6803F02003002B90
:10100C0007D0144B9B8C9BB2DBB219461248FFF7EE
:10101C0047FF7B6803F08003002B14D00F48FFF7C9
:10102C0059FF0346002B08D10C48FFF767FF034616
:10103C001A46084B92B21A8505E0064B1B68054A06
:10104C0023F08003136000BF0C37BD46BDE8814020
:10105C0085467047004400402C02002030030020DD
:10106C0080B48BB000AFF860B9607A6000237B620B
:10107C00BB68DB083B62BB6803F007039B00FB61AA
:10108C00FB683A6A083253F822307B620F22FB6904
:10109C0002FA03F3DB437A6A13407B627A68FB69DA
:1010AC0002FA03F37A6A13437B62FB683A6A0832EA
:1010BC00796A43F822100223BB61FB681B687B62D0
:1010CC00BB685B00032202FA03F3DB437A6A13402A
:1010DC007B62BB685B00BA6902FA03F37A6A13435A
:1010EC007B62FB687A6A1A6002237B61FB689B68EF
:1010FC007B62BB685B00032202FA03F3DB437A6A70
:10110C0013407B62BB685B007A6902FA03F37A6A6C
:10111C0013437B62FB687A6A9A6000BF2C37BD462A
:10112C0080BC704780B48BB000AFF860B9607A6057
:10113C0000237B62BB68DB083B62BB6803F00703E0
:10114C009B00FB61FB683A6A083253F822307B62E1
:10115C000F22FB6902FA03F3DB437A6A13407B62CA
:10116C007A68FB6902FA03F37A6A13437B62FB68C1
:10117C003A6A0832796A43F822100223BB61FB6891
:10118C001B687B62BB685B00032202FA03F3DB4340
:10119C007A6A13407B62BB685B00BA6902FA03F39C
:1011AC007A6A13437B62FB687A6A1A6002237B615A
:1011BC00FB689B687B62BB685B00032202FA03F34B
:1011CC00DB437A6A13407B62BB685B007A6902FA84
:1011DC0003F37A6A13437B62FB687A6A9A60012391
:1011EC003B614FF09043DB687B62BB685B00032282
:1011FC0002FA03F3DB437A6A13407B62BB685B0041
:10120C003A6902FA03F37A6A13437B624FF0904215
:10121C007B6AD36000BF2C37BD4680BC704780B55D
:10122C0082B000AF78607B68012B03D07B68022B07
:10123C0002D003E0064B06E0064B04E00B20FFF760
:10124C0057FD00BF002318460837BD4680BD00BFC0
:10125C00003801400044004080B582B000AF786097
:10126C007B68012B03D07B68022B02D003E0252383
:10127C0006E0262304E00B20FFF73AFD00BF002315
:10128C0018460837BD4680BD80B500AF0C48FFF747
:10129C00F9FD0C48FFF7F6FD0B4B1B6E0A4A43F4A5
:1012AC0080431366072209214FF09040FFF7D8FEC8
:1012BC0007220A214FF09040FFF734FF00BF80BD9A
:1012CC0024000020280100200010024080B500AF4F
:1012DC000C48FFF7D7FD0C48FFF7D4FD0B4B9B6D6B
:1012EC000A4A43F400339365072202214FF09040E1
:1012FC00FFF7B6FE03220F214FF09040FFF712FFCD
:10130C0000BF80BD2C0200203003002000100240E2
:10131C0080B586B000AF786039607868FFF77FFFE2
:10132C0078617B69002B02D14FF0FF3353E02C4BDB
:10133C00DB6C2B4A43F00103D3647B6900221A60F7
:10134C007B68012B03D07B68022B03D005E0FFF7F1
:10135C009BFF05E0FFF7BAFF02E04FF0FF333AE0E6
:10136C003B685B0803F1747303F510433A68B3FBF5
:10137C00F2F33B617B693A69DA607B691B6843F085
:10138C000C027B691A607B695B6823F400627B69E1
:10139C005A600220FFF73EFB7868FFF75DFFF860AC
:1013AC00FB685BB20F211846FFF742FD7B691B6897
:1013BC0043F001027B691A60FB685BB21846FFF7C9
:1013CC001BFD7B691B6843F020027B691A600220BD
:1013DC00FFF7ECFB002318461837BD4680BD00BF55
:1013EC000010024080B582B000AF786039607B6835
:1013FC00012B03D07B68022B06D00BE03968786890
:10140C00FFF786FF034607E039687868FFF780FF2F
:10141C00034601E04FF0FF3318460837BD4680BD48
:10142C0080B582B000AF78607B68DBB219460648A5
:10143C00FFF736FD054B1B68044A43F0800313602D
:10144C0000BF0837BD4680BD280100200038014090
:10145C0080B582B000AF78607B68DBB21946064875
:10146C00FFF71EFD054B1B68044A43F08003136015
:10147C0000BF0837BD4680BD30030020004400404B
:10148C0080B582B000AF786039607B68012B03D0E7
:10149C007B68022B04D007E03868FFF7C1FF03E03C
:1014AC003868FFF7D5FF00BF00BF0837BD4680BDC9
:1014BC0080B582B000AF78607B68012B03D07B686D
:1014CC00022B0ED01BE01148FFF704FD0346002B46
:1014DC0004D10E48FFF712FD034612E04FF0FF3324
:1014EC000FE00B48FFF7F6FC0346002B04D108482D
:1014FC00FFF704FD034604E04FF0FF3301E04FF02B
:10150C00FF3318460837BD4680BD00BF24000020BD
:10151C002C02002080B582B000AF7860396009E001
:10152C007B685A1C7A601B781846FFF779FF3B687A
:10153C00013B3B603B68002BF2DC00BF00BF08376F
:10154C00BD4680BD80B582B000AF7860396009E0DF
:10155C007B685A1C7A601B781846FFF779FF3B684A
:10156C00013B3B603B68002BF2DC00BF00BF08373F
:10157C00BD4680BD80B584B000AFF860B9607A60BC
:10158C00FB68012B03D0FB68022B05D009E07968BE
:10159C00B868FFF7BFFF04E07968B868FFF7D2FFBF
:1015AC0000BF00BF1037BD4680BD80B582B000AF14
:1015BC007860396007E03B685A1C3A601B78194622
:1015CC007868FFF75DFF3B681B78002BF3D100BFF9
:1015DC0000BF0837BD4680BD80B592B000AF7860C3
:1015EC00396007F108030A2219463868FEF7F5FD41
:1015FC0007F1080319467868FFF7D7FF00BF483793
:10160C00BD4680BD80B582B000AF78607B68012B91
:10161C0005D07B68022B07D000BF002308E00648EA
:10162C00FFF793FC034603E00448FFF78EFC0346E8
:10163C0018460837BD4680BD280100203003002025
:10164C0080B582B000AF78600B46FB70FB7803F07E
:10165C000F03054A52F8233019467868FFF710FF3C
:10166C0000BF0837BD4680BD141D000880B582B090
:10167C0000AF78600B46FB70FB781B09DBB2194698
:10168C007868FFF7DDFFFB7803F00F03DBB2194638
:10169C007868FFF7D5FF00BF0837BD4680BD80B521
:1016AC0082B000AF78600B467B807B881B0A9BB2B4
:1016BC00DBB219467868FFF7D9FF7B88DBB2194695
:1016CC007868FFF7D3FF00BF0837BD4680BD80B5F3
:1016DC0082B000AF786039603B681B0C9BB2194636
:1016EC007868FFF7DCFF3B689BB219467868FFF718
:1016FC00D6FF00BF0837BD4680BD00BF541D000893
:10170C000000002000000020000000203404002015
:10171C0080B588B000AF434B1B68424A23F08073FE
:10172C001360404B1B683F4A43F48073136002E024
:10173C000A20FFF76FF93B4B1B6803F48063002B07
:10174C00F6D04FF47A70FFF765F9364B9B68354A43
:10175C0043F0010393604FF47A70FFF75BF90323B6
:10176C00FB61314B1A683049FB6913430B6002E093
:10177C000A20FFF74FF92C4B1B6803F00703FA699B
:10178C009A42F5D16420FFF745F90023BB61BB6990
:10179C0043F08073BB6140237B617B691B02BA6998
:1017AC001343BB6101233B613B691B01BA691343C2
:1017BC00BB610123FB60BA69FB681343BB61194A27
:1017CC00BB69D360174B1B68164A43F080731360D8
:1017DC0042F21070FFF71EF90023BB6003237B60FD
:1017EC00BB6823F00303BB60BA687B681343BB6020
:1017FC000C4ABB68936042F21070FFF70BF9094B6F
:10180C001B68084A23F4807323F00103136005203E
:10181C00FFF700F9054B4FF000629A6000BF2037CC
:10182C00BD4680BD001002400020024000ED00E0EB
:10183C0080B582B000AF164A164BD31A9B103B6092
:10184C0000237B6007E0134A7B6852F823309847EB
:10185C007B6801337B607A683B689A42F3D30E4A0B
:10186C000E4BD31A9B103B6000237B6007E00B4AA6
:10187C007B6852F8233098477B6801337B607A6829
:10188C003B689A42F3D300BF00BF0837BD4680BD0A
:10189C00541D0008541D0008541D0008541D000858
:1018AC0080B487B000AFF860B9607A6000237B61C8
:1018BC0001233B61BB68002B07D1002325E0BB68EB
:1018CC005B00BB603B695B003B61BB68002BF6DADD
:1018DC0011E0BA68FB689A4207D8FA68BB68D31A59
:1018EC00FB607A693B6913447B61BB685B08BB6036
:1018FC003B695B083B613B69002BEAD17B68002BA1
:10190C0002D07B68FA681A607B6918461C37BD46A2
:10191C0080BC704780B487B000AFF860B9607A6063
:10192C0000237B6101233B61BB68002B07D10023A3
:10193C0025E0BB685B00BB603B695B003B61BB683F
:10194C00002BF6DA11E0BA68FB689A4207D8FA68FD
:10195C00BB68D31AFB607A693B6913447B61BB6833
:10196C005B08BB603B695B083B613B69002BEAD1C0
:10197C007B68002B02D07B68FA681A607B6918467A
:10198C001C37BD4680BC704780B582B000AF786014
:10199C003960002239687868FFF782FF03461846E1
:1019AC000837BD4680BD80B582B000AF7860396025
:1019BC00002239687868FFF7ADFF034618460837F0
:1019CC00BD4680BD80B487B000AFF860B9607A6066
:1019DC00FB683B6100237B6108E03A697B69134437
:1019EC00BA68D2B21A707B6901337B617A697B6801
:1019FC009A42F2D3FB6818461C37BD4680BC704730
:101A0C002DE90350FFF7C0FFBDE8065000FB02F3C1
:101A1C00A1EB0301F74600291CDA10B50024404263
:101A2C008C412146002B0ADA002452429C41234669
:101A3C0000F01EF8002452429C41234610BD00F0D9
:101A4C0017F8002440428C412146002452429C410C
:101A5C00234610BD002B0BDA10B5002452429C41DA
:101A6C00234600F005F8002440428C41214610BD6D
:101A7C00002B28D1002A1CD000291CD0F0B5012540
:101A8C00171C06D4B94204D36D007F0001D4B942AF
:101A9C00FAD20B460246002100E07F08BB4201D37C
:101AAC00DB1B29436D08F8D10125ED07FE077F08E4
:101ABC001BE000F02DB8114600B5FFF7A1FF0A4658
:101ACC000021002300BDF0B51F4616460B4602460A
:101ADC0000210125003708D4BB4206D36D007F00DE
:101AEC0076004F4101D4BB42F8D240401C46B24272
:101AFC00BC4102D3921BBB412843FC0776087F08EC
:101B0C0026436D08F2D1F0BDFEF754FC00BE01BEB9
:101B1C0070470000DFF834D0FFF7FAFD002103E036
:101B2C000B4B5B58435004310A480B4B42189A42FA
:101B3C00F6D30A4A02E0002342F8043B084B9A42CF
:101B4C00F9D3FFF775FEFEF735FCFEE700C0002069
:101B5C00541D0008000000200000002000000020A0
:081B6C0034040020FEE7000034
:101B7400300000003100000032000000330000009B
:101B8400340000003500000036000000370000007B
:101B9400380000003900000041000000420000004D
:101BA400430000004400000045000000460000001F
:101BB4005553415254310A005553415254320A008C
:101BC400000000000D0A000068656C6C6F2C207723
:101BD4006F726C64000000004472656B6B6172206C
:101BE40048656C6C6F53746D333220302E302E3355
:101BF400000000006275696C64204D617220203120
:101C040020323032322030383A33383A3032000021
:101C14006769742030323033326461662D646972CE
:101C24007479000061726D00436F7079726967683E
:101C3400742032303231202843292048656E72697D
:101C44006B20426A6F726B6D616E207777772E65B9
:101C540069742E73652F686200000000474E55209A
:101C640047454E4552414C205055424C4943204C27
:101C74004943454E53452056657273696F6E203251
:101C8400000000006D61696E3A20736563416E6403
:101C94004C6F67496E6974006D61696E3A20456ED8
:101CA400746572206D61696E206C6F6F7000000046
:101CB4006D61696E5365636F6E64733A2073656317
:101CC400416E644C6F67496E697400000D0A000030
:101CD4006D61696E5365636F6E64733A2000000032
:101CE40000000000000000000000000000000000F0
:101CF40000000000000000000000000000000000E0
:101D040000000000000000000000000000000000CF
:101D140030000000310000003200000033000000F9
:101D240034000000350000003600000037000000D9
:101D340038000000390000004100000042000000AB
:101D4400430000004400000045000000460000007D
:0400000508001B21B3
:00000001FF
